:100000000C9434000C9451000C9451000C94510049
:100010000C9451000C9451000C9451000C9451001C
:100020000C9451000C9451000C9451000C9451000C
:100030000C9451000C9451000C94D6160C94510061
:100040000C9451000C9451000C9451000C945100EC
:100050000C9451000C9451000C9451000C945100DC
:100060000C9451000C94510011241FBECFEFD8E026
:10007000DEBFCDBF12E0A0E0B1E0E6EEFBE302C0E0
:1000800005900D92AA32B107D9F723E0AAE2B2E0B7
:1000900001C01D92A438B207E1F70E9453000C94EE
:1000A000F11D0C940000CF93DF93CDB7DEB76997B5
:1000B0000FB6F894DEBF0FBECDBF0E94E8008AE401
:1000C00093E00E94740F9A83898389819A81892B96
:1000D00029F085E091E00E94931879C060E271E018
:1000E00084E793E00E9464139A83898389819A81CB
:1000F000892B29F084E291E00E94931868C064E3A0
:1001000073E084E793E00E94CA139A83898389810C
:100110009A81892B09F057C080913D03882309F407
:1001200052C083E491E00E9493188DE393E00E9413
:1001300093188DE393E0892F8F938DE393E08F9352
:1001400080E291E0892F8F9380E291E08F938CE49D
:1001500091E0892F8F938CE491E08F93CE010396E9
:10016000292F2F938F930E94F71A8DB79EB7089669
:100170000FB6F894DEBF0FBECDBFCE0103960E942E
:1001800050119A8389830E94AC14DC01CB01811544
:100190009440A105B10528F482E591E00E949318EE
:1001A000AECF85E691E00E9493180E944E178823F7
:1001B00029F088E791E00E949318A1CF8FE891E0A1
:1001C0000E9493189CCF8AEA91E00E949318FFCF77
:1001D000CF93DF93CDB7DEB72E970FB6F894DEBF7F
:1001E0000FBECDBF60E875E280E090E00E940E187F
:1001F00080E090E0A8E4B3E489839A83AB83BC8376
:1002000020E030E04AE755E469817A818B819C8166
:100210000E941E1ADC01CB018D839E83AF83B887B9
:1002200020E030E040E85FE36D817E818F8198853A
:100230000E94FE1888232CF481E090E09A87898739
:100240003FC020E03FEF4FE757E46D817E818F8113
:1002500098850E94191A18164CF520E030E040E20B
:1002600051E469817A818B819C810E941E1ADC0194
:10027000CB01BC01CD010E947519DC01CB019A872D
:1002800089870FC080E991E09C878B878B859C854F
:100290000197F1F79C878B8789859A8501979A87C3
:1002A000898789859A85892B69F714C06D817E813C
:1002B0008F8198850E947519DC01CB019A87898707
:1002C00089859A859E878D878D859E850197F1F713
:1002D0009E878D8700002E960FB6F894DEBF0FBE66
:1002E000CDBFDF91CF910895CF93DF93CDB7DEB728
:1002F00084E290E024E230E0F90120812C62FC01EC
:10030000208385E290E025E230E0F901208120633E
:10031000FC01208384E690E024E630E0F9012081AE
:100320002B7FFC0120838DE490E02DE430E0F90187
:1003300020812E7FFC0120838CE490E023E5FC01EA
:1003400020830000DF91CF910895CF93DF93CDB745
:10035000DEB78CE490E02CE430E0F90120812C7FC2
:10036000FC0120838DE490E02DE430E0F901208150
:100370002160FC0120830000DF91CF910895CF938D
:10038000DF931F92CDB7DEB789838EE490E0298199
:10039000FC01208300008DE490E0FC018081882333
:1003A000D4F78EE490E0FC0180810F90DF91CF9133
:1003B0000895CF93DF93CDB7DEB78FEF0E94BF01D3
:1003C000DF91CF910895CF93DF931F92CDB7DEB722
:1003D000898389810E94BF0100000F90DF91CF9136
:1003E0000895CF93DF93CDB7DEB727970FB6F89474
:1003F000DEBF0FBECDBF8B834C835D836E837F8357
:100400008FEF89831A828B8188237CF440E050E04F
:10041000BA0187E70E94F1018A838B818F778B83F2
:100420008A81823010F08A815BC085E290E025E20B
:1004300030E0F90120812460FC0120830E94D90171
:1004400085E290E025E230E0F90120812B7FFC017C
:1004500020830E94D9018B810E94E3018C819D81C0
:10046000AE81BF818B2F9927AA27BB270E94E3016A
:100470008C819D81AE81BF81CD01AA27BB270E94BF
:10048000E3018C819D81AE81BF81892F9A2FAB2F93
:10049000BB270E94E3018C810E94E3018B818034A1
:1004A00011F485E989838B81883411F487E8898385
:1004B00089810E94E3018B818C3419F40E94D90157
:1004C0008A838AE089830E94D9018A838A8188236A
:1004D00034F489819FEF980F99838823A1F78A814B
:1004E00027960FB6F894DEBF0FBECDBFDF91CF9138
:1004F00008950F931F93CF93DF93CDB7DEB7C956FF
:10050000D1090FB6F894DEBF0FBECDBFCE018A5918
:100510009F4FFC0110821182128213821A8219826B
:1005200010922A020E94740185E290E025E230E0F8
:10053000F90120812460FC0120838AE08B8305C0BF
:100540000E94D9018B8181508B838B818823C1F7D5
:1005500088EE93E09A838983F4C080E090E0A8EC71
:10056000B2E48E879F87A88BB98B2BEA3AEA4AEAD6
:1005700050E46E857F85888999890E941E1ADC0166
:10058000CB018A8B9B8BAC8BBD8B20E030E040E8AD
:1005900050E46E857F85888999890E941E1ADC0146
:1005A000CB018E8B9F8BA88FB98F20E030E040E885
:1005B0005FE36A897B898C899D890E94FE18882364
:1005C0001CF481E08A8FB2C020E03FEF4FE757E490
:1005D0006E897F89888D998D0E94191A18160CF0E2
:1005E0007BC020E030E04AE754E46E857F8588894F
:1005F00099890E940319DC01CB018B8F9C8FAD8FF1
:10060000BE8F20E030E04AE755E46B8D7C8D8D8D08
:100610009E8D0E941E1ADC01CB018F8F98A3A9A387
:10062000BAA320E030E040E85FE36F8D78A189A1B4
:100630009AA10E94FE1888232CF481E090E09CA3EC
:100640008BA33FC020E03FEF4FE757E46F8D78A1C9
:1006500089A19AA10E94191A18164CF520E030E0E1
:1006600040E251E46B8D7C8D8D8D9E8D0E941E1A13
:10067000DC01CB01BC01CD010E947519DC01CB016D
:100680009CA38BA30FC080E991E09EA38DA38DA1B5
:100690009EA10197F1F79EA38DA38BA19CA1019729
:1006A0009CA38BA38BA19CA1892B69F73FC06F8D65
:1006B00078A189A19AA10E947519DC01CB019CA3A4
:1006C0008BA38BA19CA198A78FA38FA198A501971D
:1006D000F1F798A78FA32AC020E030E04FE753E45A
:1006E0006A897B898C899D890E94191A1816ACF435
:1006F0006E897F89888D998D0E947519DC01CB01E7
:100700009AA789A789A59AA59CA78BA78BA59CA525
:100710000197F1F79CA78BA70FC06A897B898C8909
:100720009D890E947519DC01CB018A8F8A8D8DA766
:100730008DA58A95F1F78DA789819A8101979A8372
:10074000898389819A81892B49F040E050E0BA0180
:1007500080E40E94F101813009F0FFCE89819A8105
:10076000892B09F486C34AEA51E060E070E088E42E
:100770000E94F101813009F070C01C8210C08C8190
:10078000082F10E00E94D901282FCE018A599F4FCF
:10079000800F911FFC0120838C818F5F8C838C8163
:1007A000843068F3CE018A599F4FFC0182818130E9
:1007B00009F05FC3CE018A599F4FFC0183818A3AB9
:1007C00009F057C380E197E29A83898305C0898144
:1007D0009A8101979A83898389819A81892B49F02B
:1007E00040E050E060E070E489EE0E94F10188236F
:1007F00071F789819A81892B09F43BC340E050E06D
:10080000BA018AE70E94F101882309F032C31D82F0
:1008100010C08D81082F10E00E94D901282FCE0131
:100820008A599F4F800F911FFC0120838D818F5F1C
:100830008D838D81843068F3CE018A599F4FFC01EE
:100840008081882F90E080749927892B11F08AE0AD
:1008500001C082E080932A020CC380E197E29A8370
:10086000898348C180E090E0A8ECB2E48E839F8346
:10087000A887B9872BEA3AEA4AEA50E46E817F8179
:10088000888599850E941E1ADC01CB018EA79FA73F
:10089000A8ABB9AB20E030E040E850E46E817F8146
:1008A000888599850E941E1ADC01CB018AAB9BAB1F
:1008B000ACABBDAB20E030E040E85FE36EA57FA5C8
:1008C00088A999A90E94FE1888231CF481E08EABA8
:1008D000F9C020E03FEF4FE757E46AA97BA98CA954
:1008E0009DA90E94191A18160CF0AEC020E030E045
:1008F0004AE754E46E817F81888599850E940319B7
:10090000DC01CB018FAB98AFA9AFBAAF20E030E0EC
:100910004AE755E46FA978AD89AD9AAD0E941E1AD9
:10092000DC01CB018BAF9CAFADAFBEAF20E030E0C0
:1009300040E85FE36BAD7CAD8DAD9EAD0E94FE18CF
:10094000882344F421E030E0CE01CF96FC013183CE
:1009500020835FC020E03FEF4FE757E46BAD7CADF5
:100960008DAD9EAD0E94191A18160CF044C020E0FF
:1009700030E040E251E46FA978AD89AD9AAD0E94B4
:100980001E1ADC01CB01BC01CD010E947519DC01EE
:10099000CB019E01215C3F4FF9019183808323C0ED
:1009A000CE018F5B9F4F20E931E0FC013183208332
:1009B000CE018F5B9F4FFC01808191810197F1F700
:1009C0009E012F5B3F4FF90191838083CE01CF962B
:1009D000FC01808191819C0121503109CE01CF968B
:1009E000FC0131832083CE01CF96FC01808191816F
:1009F000892BB1F667C06BAD7CAD8DAD9EAD0E940D
:100A00007519DC01CB019E01215C3F4FF9019183F7
:100A10008083CE018D5B9F4F9E01215C3F4FF9018A
:100A200020813181FC0131832083CE018D5B9F4F7A
:100A3000FC01808191810197F1F79E012D5B3F4F71
:100A4000F901918380833EC020E030E04FE753E41A
:100A50006EA57FA588A999A90E94191A18164CF5A8
:100A60008E010B5B1F4F6AA97BA98CA99DA90E94CF
:100A70007519DC01CB01F80191838083CE01895B7C
:100A80009F4F9E012B5B3F4FF90120813181FC017B
:100A900031832083CE01895B9F4FFC01808191814E
:100AA0000197F1F79E01295B3F4FF9019183808304
:100AB0001CC06EA57FA588A999A90E947519DC01A3
:100AC000CB018EABCE01875B9F4F2EA9FC0120830B
:100AD000CE01875B9F4FFC018081282F2A95F1F77B
:100AE000CE01875B9F4FFC01208389819A8101970A
:100AF0009A83898389819A81892B49F040E050E06B
:100B0000BA0189EE0E94F101882309F0ABCE8981F8
:100B10009A81892B21F081E080932A02AAC180E189
:100B200097E29A8389838FC180E090E0A8ECB2E4D9
:100B30008A879B87AC87BD878E01065B1F4F2BEA98
:100B40003AEA4AEA50E46A857B858C859D850E9455
:100B50001E1ADC01CB01F80180839183A283B38349
:100B60008E01025B1F4F20E030E040E850E46A85D0
:100B70007B858C859D850E941E1ADC01CB01F801C6
:100B800080839183A283B383CE01865B9F4F20E055
:100B900030E040E85FE3FC016081718182819381F4
:100BA0000E94FE1888233CF4CE018E5A9F4F21E00C
:100BB000FC0120832CC1CE01825B9F4F20E03FEFE0
:100BC0004FE757E4FC0160817181828193810E942B
:100BD000191A18160CF0CDC020E030E04AE754E4B2
:100BE0006A857B858C859D850E940319DC01CB017C
:100BF0009E012D5A3F4FF90180839183A283B383D5
:100C00008E01095A1F4FCE018D5A9F4F20E030E0D0
:100C10004AE755E4FC0160817181828193810E94E1
:100C20001E1ADC01CB01F80180839183A283B38378
:100C3000CE01895A9F4F20E030E040E85FE3FC019D
:100C400060817181828193810E94FE1888234CF417
:100C5000CE01855A9F4F21E030E0FC013183208393
:100C60006DC0CE01895A9F4F20E03FEF4FE757E418
:100C7000FC0160817181828193810E94191A18168A
:100C80000CF04AC0CE018D5A9F4F20E030E040E288
:100C900051E4FC0160817181828193810E941E1A5E
:100CA000DC01CB018E01055A1F4FBC01CD010E9412
:100CB0007519DC01CB01F8019183808324C0CE013A
:100CC000835A9F4F20E931E0FC0131832083CE011C
:100CD000835A9F4FFC01808191810197F1F79E011A
:100CE000235A3F4FF90191838083CE01855A9F4F4C
:100CF0009E01255A3F4FF901208131812150310950
:100D0000FC0131832083CE01855A9F4FFC018081F5
:100D10009181892BA1F67BC08E01055A1F4FCE0110
:100D2000895A9F4FFC0160817181828193810E9469
:100D30007519DC01CB01F80191838083CE01815AC2
:100D40009F4F9E01255A3F4FF90120813181FC01BF
:100D500031832083CE01815A9F4FFC018081918194
:100D60000197F1F79E01215A3F4FF901918380834A
:100D70004EC0CE01865B9F4F20E030E04FE753E44A
:100D8000FC0160817181828193810E94191A181679
:100D90006CF58E010F591F4FCE01825B9F4FFC01F6
:100DA00060817181828193810E947519DC01CB0180
:100DB000F80191838083CE018D599F4F9E012F5959
:100DC0003F4FF90120813181FC0131832083CE0125
:100DD0008D599F4FFC01808191810197F1F79E0110
:100DE0002D593F4FF9019183808328C08E010E5AFF
:100DF0001F4FCE01865B9F4FFC0160817181828114
:100E000093810E947519DC01CB01F8018083CE012A
:100E10008B599F4F9E012E5A3F4FF9012081FC01B3
:100E20002083CE018B599F4FFC018081282F2A956A
:100E3000F1F7CE018B599F4FFC01208389819A8164
:100E400001979A83898389819A81892B49F040E0AF
:100E500050E0BA0181E40E94F101882309F064CED8
:100E600089819A81892B11F084E001C080E0809310
:100E70002A0280912A02882F90E088709927892B76
:100E800059F480912A02882339F040E052E060E072
:100E900070E080E50E94F10185E290E025E230E01B
:100EA000F90120812460FC01208380912A0288239B
:100EB00011F00E94A50190912A0281E0992309F086
:100EC00080E0C759DF4F0FB6F894DEBF0FBECDBF2D
:100ED000DF91CF911F910F910895CF93DF9300D0B1
:100EE000CDB7DEB79A83898302C00E94D901898178
:100EF0009A819C01215031093A832983892BA9F7D2
:100F000000000F900F90DF91CF9108950F931F93E2
:100F1000CF93DF93CDB7DEB760970FB6F894DEBFFF
:100F20000FBECDBF98878F8349875A876B877C8791
:100F30003E872D87188B0F8781E090E09A83898305
:100F40001C821B821E821D8280912A02882319F432
:100F500082E090E091C080912A02882F90E0887012
:100F60009927892B89F489859A85AB85BC85072EBD
:100F700079E0880F991FAA1FBB1F7A95D1F7702DB2
:100F800089879A87AB87BC872D853E858F85988911
:100F9000820F931F8130924018F083E090E06CC084
:100FA00089859A85AB85BC85AC01BD0181E50E9430
:100FB000F101882309F053C080E197E29C838B8381
:100FC00005C08B819C8101979C838B838B819C8145
:100FD000892B21F00E94D9018E3F99F78B819C814A
:100FE000892BE9F18D859E8522273327281B390B14
:100FF0008F859889A901481B590BCA018E5F9D4FA7
:101000009E838D838D859E850E946D078F81988537
:10101000892BA1F00F811885C801019698878F83CD
:101020000E94D901F80180838F8598890197988B58
:101030008F878F859889892B69F70BC00E94D9010A
:101040008F8598890197988B8F878F859889892BB1
:10105000A9F78D819E810E946D071A82198285E20F
:1010600090E025E230E0F90120812460FC0120833A
:101070000E94D90189819A8160960FB6F894DEBFEB
:101080000FBECDBFDF91CF911F910F910895CF93E8
:10109000DF9300D000D0CDB7DEB79C838B838B81EC
:1010A0009C810196FC018081882F90E09A8389833E
:1010B00089819A81382F22278B819C81FC01808134
:1010C000882F90E0822B932B9A83898389819A8140
:1010D0000F900F900F900F90DF91CF910895CF93C5
:1010E000DF9300D000D000D0CDB7DEB79E838D83D4
:1010F0008D819E810396FC018081882F90E0A0E085
:10110000B0E089839A83AB83BC8389819A81AB8168
:10111000BC812227382F492F5A2F8D819E8102961C
:10112000FC018081882F90E0A0E0B0E0822B932B1F
:10113000A42BB52B89839A83AB83BC8389819A8145
:10114000AB81BC812227382F492F5A2F8D819E8158
:101150000196FC018081882F90E0A0E0B0E0822B16
:10116000932BA42BB52B89839A83AB83BC83898172
:101170009A81AB81BC812227382F492F5A2F8D812C
:101180009E81FC018081882F90E0A0E0B0E0822B5E
:10119000932BA42BB52B89839A83AB83BC83898142
:1011A0009A81AB81BC81BC01CD0126960FB6F89423
:1011B000DEBF0FBECDBFDF91CF910895CF93DF93F8
:1011C000CDB7DEB728970FB6F894DEBF0FBECDBF00
:1011D0009C838B837E836D8358874F838B819C8117
:1011E0009A8389830AC089819A819C012F5F3F4F2E
:1011F0003A8329832D81FC0120838F8198859C016E
:101200002150310938872F83892B69F700002896F0
:101210000FB6F894DEBF0FBECDBFDF91CF9108951A
:10122000CF93DF93CDB7DEB72C970FB6F894DEBF20
:101230000FBECDBF98878F837A8769875C874B877E
:101240008F8198859A83898389859A859C838B83EE
:101250001E821D8200008B859C859C0121503109D6
:101260003C872B87892B11F189819A819C012F5F03
:101270003F4F3A832983FC018081282F880F330B4D
:101280008B819C81AC014F5F5F4F5C834B83FC0182
:101290008081082E000C990BA901481B590BCA012B
:1012A0009E838D838D819E81892BA9F28D819E8164
:1012B0002C960FB6F894DEBF0FBECDBFDF91CF9155
:1012C00008950F931F93CF93DF93CDB7DEB72A977F
:1012D0000FB6F894DEBF0FBECDBF6F8378878987C6
:1012E0009A8780912B0290912C029A8389838F8117
:1012F0009885A985BA850297A105B10580F08981F5
:101300009A81FC0126813781408551858F8198859E
:10131000A985BA8582179307A407B50728F081E04D
:1013200090E0A0E0B0E074C089819A81FC018081E6
:10133000882F90E08230910519F0039771F164C015
:101340008F8198859927BC01660F771F89819A81C3
:10135000FC0122853385448555858F819885A98533
:10136000BA85892F9A2FAB2FBB27820F931FA41FFB
:10137000B51FFE01339602E010E09B01AC01BD01F8
:10138000CF010E948607892BE1F5CE0103960E94CA
:101390004708CC01A0E0B0E03BC08F8198858F77F3
:1013A0009927BC01660F771F660F771F89819A8185
:1013B000FC0122853385448555858F819885A985D3
:1013C000BA85689416F8B695A7959795879516945B
:1013D000D1F7820F931FA41FB51FFE01339604E0BF
:1013E00010E09B01AC01BD01CF010E948607892B53
:1013F00051F4CE0103960E946F08DC01CB01BF704F
:1014000007C0000001C0000081E090E0A0E0B0E073
:10141000BC01CD012A960FB6F894DEBF0FBECDBF3A
:10142000DF91CF911F910F910895CF93DF9300D05B
:1014300000D000D0CDB7DEB76B837C838D839E83D5
:1014400080912B0290912C029A8389838B819C81BD
:10145000AD81BE810297A109B1098B839C83AD83C5
:10146000BE8389819A81FC0186819781A085B1859F
:101470009C01AD0122503109410951098B819C81A8
:10148000AD81BE8182179307A407B50720F080E0E5
:1014900090E0DC011DC089819A81FC018281282FA6
:1014A00030E040E050E08B819C81AD81BE81BC0189
:1014B000CD010E94B2189B01AC0189819A81FC0187
:1014C00082899389A489B589820F931FA41FB51FB0
:1014D000BC01CD0126960FB6F894DEBF0FBECDBF7E
:1014E000DF91CF910895CF93DF93CDB7DEB72897E3
:1014F0000FB6F894DEBF0FBECDBF98878F83809163
:101500002B0290912C029E838D8319821A821B825A
:101510001C828D819E81FC0180818330B9F48F8192
:10152000988544960E944708CC01A0E0B0E08983EA
:101530009A83AB83BC8389819A81AB81BC81DC01B6
:101540009927882789839A83AB83BC838F81988569
:101550004A960E944708CC01A0E0B0E029813A8178
:101560004B815C81822B932BA42BB52B89839A838F
:10157000AB83BC8389819A81AB81BC81BC01CD01E5
:1015800028960FB6F894DEBF0FBECDBFDF91CF9186
:101590000895CF93DF93CDB7DEB728970FB6F894B1
:1015A000DEBF0FBECDBF98878F8380912B029091B5
:1015B0002C029E838D838F819885FC01118210827D
:1015C0008F819885FC0184819581A681B78189836B
:1015D0009A83AB83BC8389819A81AB81BC8101975B
:1015E000A105B10581F08D819E81FC0126813781A5
:1015F0004085518589819A81AB81BC81821793078F
:10160000A407B50718F081E090E047C089819A816E
:10161000AB81BC81892B8A2B8B2B89F48D819E8198
:10162000FC018081833059F48D819E81FC01868587
:101630009785A089B18989839A83AB83BC832F81E5
:10164000388589819A81AB81BC81F9018087918736
:10165000A287B38789819A81AB81BC81892B8A2B30
:101660008B2B59F089819A81AB81BC81BC01CD0162
:101670000E94150ADC01CB0107C08D819E81FC010F
:1016800086859785A089B1892F813885F90184875E
:101690009587A687B78780E090E028960FB6F894E4
:1016A000DEBF0FBECDBFDF91CF910895CF93DF9303
:1016B000CDB7DEB72A970FB6F894DEBF0FBECDBF09
:1016C0009A87898780912B0290912C029A83898333
:1016D00089859A85FC018081918101969C838B8309
:1016E0008B819C81892B59F089859A85FC018485A1
:1016F0009585A685B785892B8A2B8B2B19F483E0DA
:1017000090E09AC08B819C818F709927892B09F07A
:101710008AC089859A85FC0184859585A685B785CB
:101720000196A11DB11D29853A85F9018487958708
:10173000A687B78789859A85FC0180859185A285D2
:10174000B385892B8A2B8B2B71F489819A81FC01BB
:10175000248135818B819C818217930708F463C0B3
:1017600083E090E069C08B819C81929582958F7017
:1017700089279F70892729813A81F9012281222FA7
:1017800030E02150310982239323892B09F04BC08B
:1017900089859A85FC0180859185A285B385BC01E8
:1017A000CD010E946109DC01CB018D839E83AF8353
:1017B000B8878D819E81AF81B8850297A105B1055B
:1017C00018F481E090E038C089819A81FC0126817B
:1017D0003781408551858D819E81AF81B885821783
:1017E0009307A407B50718F083E090E025C029858A
:1017F0003A858D819E81AF81B885F9018087918777
:10180000A287B3878D819E81AF81B885BC01CD0150
:101810000E94150ADC01CB0129853A85F9018487EC
:101820009587A687B78789859A852B813C81FC019E
:101830003183208380E090E02A960FB6F894DEBFD3
:101840000FBECDBFDF91CF9108950F931F93CF931C
:10185000DF93CDB7DEB727970FB6F894DEBF0FBE84
:10186000CDBF9D838C837F836E838C819D810E94FD
:10187000C90A9A83898389819A81892B19F0898180
:101880009A8163C08C819D81FC01808191818F70E0
:1018900099279C01220F331F22953295307F3227E2
:1018A000207F32278C819D81FC0184859585A685CA
:1018B000B785EE81FF8100E210E0AC01BD01CF01F0
:1018C0000E94860721E0892B09F420E0822F90E016
:1018D0009A83898389819A81892B91F58E819F8151
:1018E000FC0180818B838B81882329F483E090E045
:1018F0009A83898328C08E819F810B96FC01808109
:10190000882F90E088709927892B71F48C819D81B4
:10191000FC01228133818E819F814BE050E0B9012F
:101920000E941009892B71F08C819D810E94560BB9
:101930009A83898389819A81892B09F4A3CF03C073
:10194000000001C0000089819A8127960FB6F894A3
:10195000DEBF0FBECDBFDF91CF911F910F910895D4
:101960000F931F93CF93DF93CDB7DEB728970FB6B2
:10197000F894DEBF0FBECDBF9E838D8378876F83C3
:1019800083E090E09A83898357C08D819E81FC011A
:10199000808191818F7099279C01220F331F22959E
:1019A0003295307F3227207F32278D819E81FC0146
:1019B00084859585A685B785EF81F88500E210E0DE
:1019C000AC01BD01CF010E94860721E0892B09F4FB
:1019D00020E0822F90E09A83898389819A81892BE4
:1019E000C1F58F819885FC0180818B838B81882351
:1019F00029F483E090E09A83898330C08F819885B1
:101A00000B96FC0180818F738C838B81853E51F016
:101A10008B818E3239F08C81882F90E088709927E5
:101A2000892BC9F08D819E810E94560B9A838983F0
:101A300089819A81892B89F48D819E81FC0184851D
:101A40009585A685B785892B8A2B8B2B09F09DCF91
:101A500005C0000003C0000001C0000089819A8118
:101A6000892B39F08D819E81FC011486158616869E
:101A7000178689819A8128960FB6F894DEBF0FBE2B
:101A8000CDBFDF91CF911F910F910895CF93DF9339
:101A9000CDB7DEB72C970FB6F894DEBF0FBECDBF23
:101AA0009A8789877C876B8789859A85FC018281E3
:101AB00093819D838C838C819D814BE050E060E21B
:101AC00070E00E94DE081B828B818A8388E0898314
:101AD0008B859C85FC01808191819F838E838A8187
:101AE00091E0980F9A83882F90E02E813F81820F9A
:101AF000931FFC01808188878885813218F1888551
:101B00008F3201F188858E3221F09B81898198176F
:101B100058F089818830B1F488858E3299F488E054
:101B20008B838BE089830DC08B8191E0980F9B8321
:101B3000882F90E02C813D81820F931F2885FC0126
:101B40002083CDCF8A81882F90E02E813F81280F7E
:101B5000391F8B859C85FC01318320838C819D817D
:101B60000B9621E03885313208F020E0FC0120831B
:101B700080E090E02C960FB6F894DEBF0FBECDBF8C
:101B8000DF91CF910895CF93DF93CDB7DEB72A973A
:101B90000FB6F894DEBF0FBECDBF9E838D837887CE
:101BA0006F835A87498789859A8509969C838B8399
:101BB0008D819E81FC0184859585A685B785892BBD
:101BC0008A2B8B2B09F485C019821FC08981882F2D
:101BD00090E02F813885820F931FFC0180818A83DA
:101BE0008A818032B1F08A81853011F485EE8A8352
:101BF0008B819C819C012F5F3F4F3C832B832A81EB
:101C0000FC01208389818F5F898389818830F0F28C
:101C100001C000008F8198850896FC018081803288
:101C200061F18B819C819C012F5F3F4F3C832B8313
:101C30002EE2FC01208388E089831AC08981882FE5
:101C400090E02F813885820F931FFC0180818A8369
:101C50008A81803289F08B819C819C012F5F3F4F6C
:101C60003C832B832A81FC01208389818F5F8983B8
:101C700089818B3018F301C000008F819885FC01A9
:101C8000238589859A85FC0120878F8198854C96CC
:101C90000E946F08DC01CB0129853A85F901808318
:101CA0009183A283B3838F81988548960E944708C9
:101CB0009C0189859A85FC01358324838F819885D1
:101CC00046960E9447089C0189859A85FC013783C6
:101CD00026838B819C81FC01108200002A960FB61E
:101CE000F894DEBF0FBECDBFDF91CF910895CF93A3
:101CF000DF93CDB7DEB728970FB6F894DEBF0FBEDF
:101D0000CDBF9C838B837E836D8358874F8305C0B3
:101D10008F819885019698878F838F819885FC01A4
:101D200080818032A9F38F819885FC0180818F3278
:101D300029F48F819885019698878F838B819C8168
:101D4000FC0114821582168217828F819885FC010E
:101D50008081803258F48B819C810E94C90A9A83C9
:101D600089838D819E81FC01108248C09E01295F7C
:101D70003F4F8B819C81B9010E94460D9A838983D4
:101D800089819A81892BA9F52D813E818B819C8146
:101D9000B9010E94250C9A83898389819A81892BB4
:101DA00051F58B819C81FC01828193810B96FC0112
:101DB0008081882311F58D819E810B96FC018081A5
:101DC000882F90E080719927892B29F483E090E097
:101DD0009A83898313C08D819E810E94730ADC01DE
:101DE000CB012B813C81F90184839583A683B78342
:101DF000BDCF000003C0000001C0000089819A81AE
:101E000028960FB6F894DEBF0FBECDBFDF91CF91FD
:101E100008950F931F93CF93DF9300D000D000D08D
:101E2000CDB7DEB79A8389834B835C836D837E83D2
:101E30008B819C81AD81BE81E981FA8102E010E055
:101E40002EEF31E0AC01BD01CF010E948607892B46
:101E500011F083E03EC089819A810E944708853550
:101E60009A4A11F082E035C08B819C81AD81BE81A0
:101E7000E981FA8102E010E026E330E0AC01BD0127
:101E8000CF010E948607892B49F489819A810E949B
:101E900047088634914411F480E01BC08B819C81FB
:101EA000AD81BE81E981FA8102E010E022E530E0F7
:101EB000AC01BD01CF010E948607892B49F48981BD
:101EC0009A810E9447088634914411F480E001C051
:101ED00081E026960FB6F894DEBF0FBECDBFDF912E
:101EE000CF911F910F910895EF92FF920F931F933F
:101EF000CF93DF93CDB7DEB7E7970FB6F894DEBF89
:101F00000FBECDBF9FAB8EAB10922C0210922B0256
:101F10000E947902882F90E081709927892B19F00F
:101F200082E090E0B0C11A821B821C821D828A81ED
:101F30009B81AC81BD819E012E5E3F4FAC01BD01F6
:101F4000C9010E94090F89838981813079F58A81CD
:101F50009B81AC81BD81FE01729600E110E02EEB09
:101F600031E0AC01BD01CF010E948607892B19F039
:101F700083E089831BC08E898823C1F0CE014296FD
:101F800008960E946F08DC01CB018A839B83AC8397
:101F9000BD838A819B81AC81BD819E012E5E3F4FB6
:101FA000AC01BD01C9010E94090F89838981833079
:101FB00019F481E090E067C18981882319F086E0F7
:101FC00090E061C18A819B81AC81BD81FE017296E6
:101FD00004E210E02DE030E0AC01BD01CF010E9431
:101FE0008607892B19F081E090E04DC1CE01429621
:101FF00009960E944708CC01A0E0B0E08E839F8341
:10200000A887B9878E819F81A885B985892B8A2B5E
:102010008B2B59F4CE01429647960E946F08DC0143
:10202000CB018E839F83A887B9878D89882F90E005
:10203000A0E0B0E02E813F8148855985BC01CD01EB
:102040000E94B218DC01CB018E839F83A887B987D9
:10205000CE01429601960E9447089C0140E050E064
:102060008A819B81AC81BD81820F931FA41FB51F04
:102070002EA93FA9F90182879387A487B5872A896A
:102080008EA99FA9FC012283CE01429604960E944C
:1020900047089C018EA99FA9FC0135832483CE01AA
:1020A000429606960E944708CC01A0E0B0E08A87DD
:1020B0009B87AC87BD878A859B85AC85BD85892B31
:1020C0008A2B8B2B59F4CE01429643960E946F08BF
:1020D000DC01CB018A879B87AC87BD87CE01429606
:1020E00001960E944708CC01A0E0B0E02A853B851C
:1020F0004C855D85281B390B4A0B5B0B8E819F81BC
:10210000A885B985281B390B4A0B5B0B8EA99FA9A3
:10211000FC0184819581929582958F7089279F70AB
:102120008927CC01A0E0B0E079018A01E81AF90A18
:102130000A0B1B0BD801C7012EA93FA9F901228167
:10214000222F30E040E050E0BC01CD010E94C218D7
:10215000DA01C9010296A11DB11D8E879F87A88B48
:10216000B98B2EA93FA98E859F85A889B989F901C8
:1021700086839783A087B18719828E859F85A889DA
:10218000B989883F9F40A105B10558F08E859F858C
:10219000A889B989873F9F4FA105B10510F482E056
:1021A00089838E859F85A889B989873F9F4FA1051F
:1021B000B10510F083E089838981882319F486E0D2
:1021C00090E061C08EA99FA92981FC0120838981AB
:1021D000833079F4CE0142964F960E946F08DC015D
:1021E000CB012EA93FA9F90186879787A08BB18BD8
:1021F00016C08EA99FA9FC0122853385448555858B
:102200008E819F81A885B985820F931FA41FB51F5A
:102210002EA93FA9F90186879787A08BB18B8EA93C
:102220009FA9FC0122853385448555858E819F8138
:10223000A885B985280F391F4A1F5B1F8EA99FA942
:10224000FC0184819581929582958F7089279F707A
:102250008927CC01A0E0B0E0820F931FA41FB51F17
:102260002EA93FA9F901828B938BA48BB58B8EA9E4
:102270009FA9FC0111828EA99FA990932C028093A3
:102280002B0280E090E0E7960FB6F894DEBF0FBE19
:10229000CDBFDF91CF911F910F91FF90EF900895E7
:1022A000CF93DF93CDB7DEB7C254D1090FB6F89400
:1022B000DEBF0FBECDBF9E012F5B3F4FF901918363
:1022C000808380912B0290912C029A83898389814B
:1022D0009A81892B19F485E090E055C089819A8113
:1022E000FC011182CE01459698878F83CE018F5BCA
:1022F0009F4FFC01408151819E012F5D3F4FCE01D8
:102300000596B9010E94770E9C838B838B819C81FB
:10231000892B19F08B819C8136C089A1882339F0E3
:102320008CA5882F90E080719927892B19F083E084
:1023300090E029C0CE0181960E94730ADC01CB0196
:1023400029813A81F901868F978FA0A3B1A3CE018D
:1023500081964C960E946F08DC01CB0129813A815D
:10236000F901828F938FA48FB58F89819A81FC01A7
:10237000168A178A108E118E89819A8121E0FC01BC
:10238000218380E090E0CE5BDF4F0FB6F894DEBF94
:102390000FBECDBFDF91CF910895EF92FF920F93C3
:1023A0001F93CF93DF93CDB7DEB76B970FB6F8943B
:1023B000DEBF0FBECDBF9F8B8E8B798F688F5B8FFB
:1023C0004A8F8E899F8998878F8380912B02909165
:1023D0002C029A8789878A8D9B8DFC01118210823D
:1023E00089859A85892B19F485E090E060C18985FB
:1023F0009A85FC018181882F90E081709927892B33
:1024000019F484E090E053C189859A85FC01228DFE
:10241000338D448D558D89859A85FC0186899789F0
:10242000A08DB18D79018A01E81AF90A0A0B1B0BFC
:10243000D801C7018B879C87AD87BE87888D998D12
:102440009C0140E050E08B859C85AD85BE85821760
:102450009307A407B50708F023C18B859C85998F46
:10246000888F1EC189859A85FC0186899789A08DF0
:10247000B18D9170AA27BB27892B8A2B8B2B09F052
:1024800092C089859A85FC0186899789A08DB18D36
:10249000072E79E0B695A795979587957A95D1F708
:1024A000702D282F89859A85FC0182818150822395
:1024B000898B8989882309F042C089859A85FC0126
:1024C00086899789A08DB18D892B8A2B8B2B61F4FE
:1024D00089859A85FC01868D978DA0A1B1A18983FC
:1024E0009A83AB83BC8311C089859A85FC0182A144
:1024F00093A1A4A1B5A1BC01CD010E946109DC0199
:10250000CB0189839A83AB83BC8389819A81AB8118
:10251000BC810297A105B10538F489859A85FC0133
:10252000118281E090E0C3C029853A8589819A8132
:10253000AB81BC81F90182A393A3A4A3B5A3898530
:102540009A85FC0182A193A1A4A1B5A1BC01CD01F2
:102550000E94150ADC01CB018A8B9B8BAC8BBD8B57
:102560008A899B89AC89BD89892B8A2B8B2B39F46D
:1025700089859A85FC01118281E090E098C0898963
:10258000282F30E040E050E08A899B89AC89BD89E2
:10259000820F931FA41FB51F29853A85F90186A3D1
:1025A00097A3A0A7B1A789859A85FC0186899789F9
:1025B000A08DB18D917020E032E07901E81AF90A1E
:1025C000C7019E838D832D813E81888D998D8217D1
:1025D000930720F4888D998D9E838D8389859A85B4
:1025E000FC0186899789A08DB18D9C013170898508
:1025F0009A85FC0186A197A1A0A5B1A54D815E8118
:10260000EF81F8858A01AC01BD01CF010E948607E8
:10261000988B8F878F859889892B39F089859A8542
:10262000FC01118281E090E042C089859A85FC011D
:1026300026893789408D518D8D819E81CC01A0E006
:10264000B0E0820F931FA41FB51F29853A85F901B9
:10265000868B978BA08FB18F288D398D8D819E8130
:102660007901E81AF90AC701998F888F8A8D9B8DA5
:10267000FC01208131818D819E81280F391F8A8D37
:102680009B8DFC01318320838F819885892B41F0BC
:102690002F8138858D819E81820F931F98878F832C
:1026A000888D998D892B09F0DDCE80E090E06B96C6
:1026B0000FB6F894DEBF0FBECDBFDF91CF911F9153
:1026C0000F91FF90EF900895CF93DF93CDB7DEB7D2
:1026D000E4970FB6F894DEBF0FBECDBF9AAB89ABBF
:1026E0007CAB6BAB80912B0290912C029C838B83F3
:1026F0008B819C81892B29F485E090E09A838983E2
:102700003EC089A99AA99E012B5F3F4FFC013383EC
:1027100022834BA95CA99E012F5E3F4F89A99AA9EC
:10272000B9010E94770E9A83898389819A81892BC6
:1027300031F589898823C9F08C8D882F90E08071CC
:102740009927892B71F0CE0141960E94730ADC0112
:10275000CB0129A93AA9F90184839583A683B7837C
:1027600004C083E090E09A83898389819A81892BD0
:1027700031F489A99AA90E94C90A9A838983898117
:102780009A81E4960FB6F894DEBF0FBECDBFDF91FD
:10279000CF910895CF93DF93CDB7DEB7E4970FB60F
:1027A000F894DEBF0FBECDBF9AAB89AB7CAB6BABF1
:1027B00080912B0290912C029C838B838B819C8136
:1027C000892B29F485E090E09A8389833DC089A90B
:1027D0009AA99E012B5F3F4FFC01338322838BA973
:1027E0009CA9892B39F489A99AA90E94C90A9A83BC
:1027F00089832AC09E012F5E3F4F89A99AA9B901FA
:102800000E94B00C9A83898389819A81039711F47D
:102810001A82198289819A81892BB1F44BA95CA90A
:102820009E012F5E3F4F89A99AA9B9010E94C30D4D
:1028300089A99AA90E94560B9A83898389819A81D2
:10284000039711F41A82198289819A81E4960FB64E
:10285000F894DEBF0FBECDBFDF91CF910895CF9327
:10286000DF93CDB7DEB78EE690E02EE630E0F901DB
:1028700020812260FC01208385E490E025E430E0A3
:10288000F90120812260FC0120830000DF91CF91BB
:102890000895CF93DF93CDB7DEB785E490E025E4CC
:1028A00030E0F90120812D7FFC0120838EE690E04D
:1028B0002EE630E0F90120812D7FFC01208300000D
:1028C000DF91CF910895CF93DF93CDB7DEB78AE242
:1028D00090E02AE230E0F90120812860FC012083A9
:1028E00080EB90E023E2FC01208381EB90E0FC018F
:1028F000108280E790E0FC01108282EB90E0FC0106
:1029000010820000DF91CF910895CF93DF93CDB770
:10291000DEB784EB90E020E8FC01208381EB90E0BF
:1029200021EB30E0F90120812160FC0120830000CF
:10293000DF91CF910895CF93DF93CDB7DEB781EBD1
:1029400090E021EB30E0F90120812E7FFC01208313
:102950000000DF91CF9108950F931F93CF93DF93E2
:10296000CDB7DEB7EC970FB6F894DEBF0FBECDBF84
:102970001C861B8620E3CE010D96FC01322F11929E
:102980003A95E9F7CE010996AC0168E270E084E37C
:1029900092E00E94CD11892B29F081E090E0A0E027
:1029A000B0E0F7C189859A858897A1F580913F02AB
:1029B000882F90E0A0E0B0E0582F4427332722274B
:1029C00080913E02882F90E0A0E0B0E0DC019927E2
:1029D0008827280F391F4A1F5B1F80913D02882FCF
:1029E00090E0A0E0B0E0BA2FA92F982F8827280FF9
:1029F000391F4A1F5B1F80913C02882F90E0A0E0A6
:102A0000B0E0820F931FA41FB51F87359144A645E0
:102A1000B54421F080E090E0DC01BBC1809143022D
:102A2000882F90E0A0E0B0E0582F442733272227DA
:102A300080914202882F90E0A0E0B0E0DC0199276D
:102A40008827280F391F4A1F5B1F80914102882F5A
:102A500090E0A0E0B0E0BA2FA92F982F8827280F88
:102A6000391F4A1F5B1F80914002882F90E0A0E031
:102A7000B0E0820F931FA41FB51F86369D46A44762
:102A8000B04221F080E090E0DC0183C180914702F8
:102A9000882F90E0A0E0B0E0582F4427332722276A
:102AA00080914602882F90E0A0E0B0E0DC019927F9
:102AB0008827280F391F4A1F5B1F80914502882FE6
:102AC00090E0A0E0B0E0BA2FA92F982F8827280F18
:102AD000391F4A1F5B1F80914402882F90E0A0E0BD
:102AE000B0E0820F931FA41FB51F89839A83AB8325
:102AF000BC8389819A81AB81BC814097A105B105D6
:102B000020F480E090E0DC0144C180914902882FEC
:102B100090E0382F222780914802882F90E0820F82
:102B2000931F019721F080E090E0DC0132C1809199
:102B30004B02882F90E0382F222780914A02882F5D
:102B400090E0820F931F019721F080E090E0DC017C
:102B500020C180915702882F90E0382F2227809142
:102B60005602882F90E0820F931F089721F080E093
:102B700090E0DC010EC180914F02882F90E0A0E030
:102B8000B0E0582F44273327222780914E02882F08
:102B900090E0A0E0B0E0DC0199278827280F391FDA
:102BA0004A1F5B1F80914D02882F90E0A0E0B0E0AB
:102BB000BA2FA92F982F8827280F391F4A1F5B1F6C
:102BC00080914C02882F90E0A0E0B0E0820F931F2C
:102BD000A41FB51F8D839E83AF83B8878D819E818F
:102BE000AF81B885AE01455F5F4F2AE030E0BC01A0
:102BF000CD010E94A11A86EC91E00E949318CE01AB
:102C00000B960E9493188BEC91E00E9493188D8193
:102C10009E81AF81B88580349F41A105B10548F000
:102C20008D819E81AF81B88589309245A105B1051E
:102C300020F080E090E0DC01ACC007E410E080E828
:102C400094E8AEE1B0E02D813E814F815885BC0112
:102C5000CD010E94C218DA01C9018150F8018083B8
:102C600087E490E0FC018081882F90E09E01255F41
:102C70003F4F4AE050E0B9010E948B1A8DEC91E081
:102C80000E949318CE010B960E9493188BEC91E052
:102C90000E94931880915B02882F90E0A0E0B0E042
:102CA000582F44273327222780915A02882F90E0FB
:102CB000A0E0B0E0DC0199278827280F391F4A1FC0
:102CC0005B1F80915902882F90E0A0E0B0E0BA2FFE
:102CD000A92F982F8827280F391F4A1F5B1F809123
:102CE0005802882F90E0A0E0B0E0820F931FA41F4D
:102CF000B51F84369146A447B14609F047C080917C
:102D00005D02882F90E0A0E0B0E0582F44273327E1
:102D1000222780915C02882F90E0A0E0B0E0DC01E7
:102D200099278827280F391F4A1F5B1F80915B0254
:102D3000882F90E0A0E0B0E0BA2FA92F982F882725
:102D4000280F391F4A1F5B1F80915A02882F90E07D
:102D5000A0E0B0E0820F931FA41FB51F89839A8360
:102D6000AB83BC8389819A81AB81BC8181159440FE
:102D7000A105B10520F480E090E0DC010AC00E94CA
:102D8000631489819A81AB81BC8103C080E090E0AB
:102D9000DC01BC01CD01EC960FB6F894DEBF0FBE8E
:102DA000CDBFDF91CF911F910F9108951F920F9288
:102DB00000905F000F9211242F933F934F935F93E6
:102DC0006F937F938F939F93EF93FF93CF93DF93B3
:102DD0001F92CDB7DEB78FE590E0FC01808189833B
:102DE000F89480912E0290912F0280389105B1F4D1
:102DF00081E090E0909331028093300210922F0294
:102E000010922E0290912D0281E0892780932D024D
:102E10009091040181E089278093040124EB30E044
:102E200080912D02882F90E0880F991F80509F4F2E
:102E3000FC014081518180912E0290912F02BC01B2
:102E40006F5F7F4F70932F0260932E02840F951F48
:102E5000FC018081F90180838091320290913302DC
:102E6000019790933302809332028FE590E029819D
:102E7000FC01208300000F90DF91CF91FF91EF9133
:102E80009F918F917F916F915F914F913F912F9182
:102E90000F9000925F000F901F901895CF93DF93D3
:102EA00000D000D0CDB7DEB786ED91E00E94931838
:102EB00010922D0281E08093040110922F02109253
:102EC0002E02109231021092300280916003909194
:102ED0006103A0916203B09163038896917020E032
:102EE00032E0A901481B590BCA019E012D5F3F4FDB
:102EF000A901BC0180E090E00E94CD11892B11F066
:102F000081E085C08BEE91E00E94931880912D02A4
:102F1000882F90E0880F991F80509F4FFC0180817F
:102F200091819E012D5F3F4FA90160E870E00E94F2
:102F3000CD1120913202309133028B819C81820F1E
:102F4000931F909333028093320280910401882F63
:102F500090E0880F991F80509F4FFC0180819181E4
:102F60009E012D5F3F4FA90160E870E00E94CD11E6
:102F700020913202309133028B819C81820F931F0A
:102F8000909333028093320280E092E00E94931883
:102F900078940E9485140E942F14809130029091A1
:102FA0003102892BF9F01092310210923002809197
:102FB0000401882F90E0880F991F80509F4FFC01DB
:102FC000808191819E012D5F3F4FA90160E870E0F3
:102FD0000E94CD119A8389838B819C8190933302C7
:102FE000809332028B819C8180389105B1F2000080
:102FF0008091320290913302892BD1F70E944914BB
:103000000E949B1486E192E00E94931880E00F904A
:103010000F900F900F90DF91CF910895CF93DF9392
:1030200000D000D000D0CDB7DEB76B837C838D831A
:103030009E838AE290E02AE230E0F9012081236059
:10304000FC01208380E492E4AFE0B0E02B813C817E
:103050004D815E81BC01CD010E94C218DA01C90117
:1030600001979A83898385EC90E029813A81232F07
:103070003327FC01208384EC90E02981FC0120832C
:1030800082EC90E022EC30E0F90120812660FC0126
:10309000208381EC90E028E1FC012083000026964B
:1030A0000FB6F894DEBF0FBECDBFDF91CF9108956C
:1030B000CF93DF93CDB7DEB780EC90E0FC01808149
:1030C000882314F481E001C080E0DF91CF9108955E
:1030D000CF93DF93CDB7DEB780EC90E0FC01808129
:1030E0008823D4F786EC90E0FC018081DF91CF91BA
:1030F0000895CF93DF931F92CDB7DEB7898380EC1D
:1031000090E0FC018081882F90E080729927892BC4
:10311000B1F386EC90E02981FC01208300000F9040
:10312000DF91CF910895CF93DF9300D0CDB7DEB775
:103130009A8389830BC089819A819C012F5F3F4FBD
:103140003A832983FC0180810E94791889819A81C0
:10315000FC018081882379F700000F900F90DF91A8
:10316000CF910895DB018F939F930E94E418BF9144
:10317000AF91A29F800D911DA39F900DB29F900DC6
:1031800011240895A1E21A2EAA1BBB1BFD010DC03C
:10319000AA1FBB1FEE1FFF1FA217B307E407F50707
:1031A00020F0A21BB30BE40BF50B661F771F881FE3
:1031B000991F1A9469F760957095809590959B0179
:1031C000AC01BD01CF0108950E94EF18A59F900D9D
:1031D000B49F900DA49F800D911D11240895A29F6E
:1031E000B001B39FC001A39F700D811D1124911DDB
:1031F000B29F700D811D1124911D08950E94A41984
:1032000008F481E008950E9417190C94DF190E94B8
:10321000D81958F00E94D11940F029F45F3F29F0E5
:103220000C94C81951110C94131A0C94CE190E94C5
:10323000F01968F39923B1F3552391F3951B550BBE
:10324000BB27AA2762177307840738F09F5F5F4F79
:10325000220F331F441FAA1FA9F335D00E2E3AF0B8
:10326000E0E832D091505040E695001CCAF72BD0D0
:10327000FE2F29D0660F771F881FBB1F2617370721
:103280004807AB07B0E809F0BB0B802DBF01FF2753
:1032900093585F4F3AF09E3F510578F00C94C8194F
:1032A0000C94131A5F3FE4F3983ED4F38695779518
:1032B0006795B795F7959F5FC9F7880F911D96950C
:1032C000879597F90895E1E0660F771F881FBB1F68
:1032D000621773078407BA0720F0621B730B840B15
:1032E000BA0BEE1F88F7E09508950E94F81988F050
:1032F0009F5798F0B92F9927B751B0F0E1F0660FBA
:10330000771F881F991F1AF0BA95C9F714C0B130FA
:1033100091F00E94121AB1E008950C94121A672FCE
:10332000782F8827B85F39F0B93FCCF38695779529
:103330006795B395D9F73EF4909580957095619512
:103340007F4F8F4F9F4F0895990F0008550FAA0B7D
:10335000E0E8FEEF16161706E807F907C0F01216A8
:103360001306E407F50798F0621B730B840B950BAB
:1033700039F40A2661F0232B242B252B21F4089500
:103380000A2609F4A140A6958FEF811D811D08959D
:1033900097F99F6780E870E060E008959FEF80EC08
:1033A000089500240A9416161706180609060895AB
:1033B00000240A9412161306140605060895092E11
:1033C0000394000C11F4882352F0BB0F40F4BF2B80
:1033D00011F460FF04C06F5F7F4F8F4F9F4F0895C0
:1033E00057FD9058440F551F59F05F3F71F04795B6
:1033F000880F97FB991F61F09F3F79F0879508959B
:10340000121613061406551FF2CF4695F1DF08C0B9
:10341000161617061806991FF1CF869571056105D6
:1034200008940895E894BB2766277727CB0197F97E
:1034300008950E94A41908F48FEF08950E94311A8C
:103440000C94DF190E94D11938F00E94D81920F08D
:10345000952311F00C94C8190C94CE1911240C94D6
:10346000131A0E94F01970F3959FC1F3950F50E065
:10347000551F629FF001729FBB27F00DB11D639F26
:10348000AA27F00DB11DAA1F649F6627B00DA11DCC
:10349000661F829F2227B00DA11D621F739FB00D72
:1034A000A11D621F839FA00D611D221F749F3327E2
:1034B000A00D611D231F849F600D211D822F762F7B
:1034C0006A2F11249F5750409AF0F1F088234AF058
:1034D000EE0FFF1FBB1F661F771F881F91505040C4
:1034E000A9F79E3F510580F00C94C8190C94131A4B
:1034F0005F3FE4F3983ED4F3869577956795B7954B
:10350000F795E7959F5FC1F7FE2B880F911D969564
:10351000879597F908954532510520F4423010F00F
:103520000C94961AFB011082CB010895BB274A30F8
:1035300031F4992322F4BDE2909581959F4F0C942C
:10354000DE1A2532310520F4223010F00C94AC1A2A
:10355000FA011082CA010895BB272A3051F4992339
:1035600042F4BDE290958095709561957F4F8F4FA5
:103570009F4F0C94BC1ABB27FA01A62F6217710546
:1035800081059105330B30FB66F0AA27660F771F84
:10359000881F991FAA1FA21710F0A21B639538500D
:1035A000A9F7A05DAA3308F0A95DA19336F7B11180
:1035B000B1931082CA010C94101DBB27FB01552743
:1035C000AA27880F991FAA1FA41710F0A41B839580
:1035D0005051B9F7A05DAA3308F0A95DA1930097F7
:1035E00079F7B111B1931192CB010C94101DAEE09B
:1035F000B0E0EDEFFAE10C94C81D0D891E8986E05C
:103600008C831A8309838FEF9FE79E838D83AE019E
:10361000475E5F4F6F89788DCE0101960E94191B1E
:10362000EF81F885E00FF11F10822E96E4E00C94F4
:10363000E41DABE0B0E0EFE1FBE10C94BA1D6C01DE
:103640007B018A01FC0117821682838181FFCCC134
:10365000CE0101963C01F6019381F70193FD85911E
:1036600093FF81917F01882309F4BAC1853239F42F
:1036700093FD859193FF81917F01853229F4B601F5
:1036800090E00E94201DE7CF912C212C312CFFE1EE
:10369000F315D8F08B3279F038F4803279F0833238
:1036A000A1F4232D20611DC08D3261F0803369F4B7
:1036B000232D216016C0832D8260382EE32DE46017
:1036C0003E2E2AC0F32DF8601DC037FC2DC020ED22
:1036D000280F2A3040F08E32B9F436FC81C1232DF8
:1036E0002064322E19C036FE06C08AE0989E200D56
:1036F0001124922E11C0EAE02E9E200D1124222EBC
:10370000F32DF0623F2E08C08C3621F4832D8068A3
:10371000382E02C0883641F4F70193FD859193FF5E
:1037200081917F018111B3CF982F9F7D9554933064
:1037300028F40C5F1F4F9FE399830DC0833631F04F
:10374000833771F0833509F059C021C0F8018081B9
:1037500089830E5F1F4F88248394912C530113C0DB
:103760002801F2E04F0E511CF801A080B18036FE16
:1037700003C0692D70E002C06FEF7FEFC5010E94AA
:10378000051D4C018201F32DFF773F2E16C0280145
:1037900022E0420E511CF801A080B18036FE03C029
:1037A000692D70E002C06FEF7FEFC5010E94FA1C27
:1037B0004C01F32DF0683F2E820133FC1BC0822D9B
:1037C00090E088169906B0F4B60180E290E00E947D
:1037D000201D2A94F4CFF50137FC859137FE8191A5
:1037E0005F01B60190E00E94201D21102A9421E083
:1037F000821A91088114910471F7E8C0843611F09F
:10380000893641F5F80137FE07C0608171818281F8
:1038100093810C5F1F4F08C060817181072E000CDF
:10382000880B990B0E5F1F4FF32DFF763F2E97FFEE
:1038300009C090958095709561957F4F8F4F9F4FF0
:10384000F0683F2E2AE030E0A3010E945C1D882E24
:10385000861845C0853731F4232D2F7EB22E2AE0FD
:1038600030E025C0932D997FB92E8F36C1F018F422
:10387000883579F0B5C0803719F0883721F0B0C0AD
:10388000E92FE061BE2EB4FE0DC0FB2DF460BF2E0B
:1038900009C034FE0AC0292F2660B22E06C028E0D7
:1038A00030E005C020E130E002C020E132E0F80164
:1038B000B7FE07C060817181828193810C5F1F4FC9
:1038C00006C06081718180E090E00E5F1F4FA30110
:1038D0000E945C1D882E8618FB2DFF773F2E36FE3A
:1038E0000DC0232D2E7FA22E891458F434FE0BC058
:1038F00032FC09C0832D8E7EA82E05C0B82CA32CC7
:1039000003C0B82C01C0B92CA4FE0FC0FE01E80D05
:10391000F11D8081803321F49A2D997EA92E09C052
:10392000A2FE06C0B394B39404C08A2D867809F031
:10393000B394A3FC11C0A0FE06C0B21488F4280CF6
:10394000922C9B180EC0B21460F4B60180E290E095
:103950000E94201DB394F7CFB21418F42B1802C0A4
:10396000982C212CA4FE10C0B60180E390E00E94A8
:10397000201DA2FE17C0A1FC03C088E790E002C092
:1039800088E590E0B6010CC08A2D867859F0A1FE3A
:1039900002C08BE201C080E2A7FC8DE2B60190E09C
:1039A0000E94201D891438F4B60180E390E00E9443
:1039B000201D9A94F7CF8A94F301E80DF11D8081C0
:1039C000B60190E00E94201D8110F5CF222009F45D
:1039D00042CEB60180E290E00E94201D2A94F6CFEC
:1039E000F6018681978102C08FEF9FEF2B96E2E16F
:1039F0000C94D61DFC010590615070400110D8F761
:103A0000809590958E0F9F1F0895FC016150704026
:103A100001900110D8F7809590958E0F9F1F089503
:103A2000DC01FC01672F71917723E1F7329704C025
:103A30007C916D9370836291AE17BF07C8F30895B0
:103A40000F931F93CF93DF93FB01238121FD03C0CD
:103A50008FEF9FEF2CC022FF16C046815781248133
:103A600035814217530744F4A081B1819D012F5F36
:103A70003F4F318320838C93268137812F5F3F4FC7
:103A80003783268314C08B01EC01FB010084F18590
:103A9000E02D0995892BE1F6D80116968D919C9120
:103AA0001797019617969C938E931697CE01DF91E8
:103AB000CF911F910F910895FA01AA27283051F153
:103AC000203181F1E8946F936E7F6E5F7F4F8F4F4F
:103AD0009F4FAF4FB1E03ED0B4E03CD0670F781FAE
:103AE000891F9A1FA11D680F791F8A1F911DA11D93
:103AF0006A0F711D811D911DA11D20D009F46894CC
:103B00003F912AE0269F11243019305D3193DEF673
:103B1000CF010895462F4770405D4193B3E00FD029
:103B2000C9F7F6CF462F4F70405D4A3318F0495D14
:103B300031FD4052419302D0A9F7EACFB4E0A695F7
:103B40009795879577956795BA95C9F70097610519
:103B5000710508959B01AC010A2E0694579547956F
:103B600037952795BA95C9F7620F731F841F951F64
:103B7000A01D08952F923F924F925F926F927F9275
:103B80008F929F92AF92BF92CF92DF92EF92FF926D
:103B90000F931F93CF93DF93CDB7DEB7CA1BDB0B19
:103BA0000FB6F894DEBF0FBECDBF09942A883988BE
:103BB00048885F846E847D848C849B84AA84B984C5
:103BC000C884DF80EE80FD800C811B81AA81B981D1
:103BD000CE0FD11D0FB6F894DEBF0FBECDBFED01E5
:063BE0000895F894FFCFE8
:103BE6003402B4020143616E6E6F74206D6F756EA0
:103BF60074206D656D6F727920636172642E0A00A0
:103C060057415600556E61626C6520746F206F7067
:103C1600656E20574156206469726563746F7279C8
:103C26002E0A000A4F70656E203A200025732F2554
:103C360073000A63616E277420706C61792066696F
:103C46006C652E0A000A737461727420706C617957
:103C5600696E672E2E2E0A006572726F7220776863
:103C6600696C686520706C6179696E672E0A0066FA
:103C7600696C65207375636365737366756C6C79BF
:103C860020706C617965642E0A00446972656374FC
:103C96006F727920656E746972656C7920706C61DB
:103CA6007965642E0A0066203A20000A004F4352C6
:103CB6003041203A2000456E746572696E67207047
:103CC6006C61796261636B28290A00666972737494
:103CD600204649464F2066696C6C20696E2E0A00A4
:103CE6000A7374617274696E6720706C6179206CF6
:103CF6006F6F702E0A0065786974696E6720706C44
:0A3D060061796261636B28290A00ED
:00000001FF
